{
  "_format": "hh-sol-artifact-1",
  "contractName": "EventManagement",
  "sourceName": "contracts/Events.sol",
  "abi": [
    {
      "inputs": [],
      "stateMutability": "nonpayable",
      "type": "constructor"
    },
    {
      "inputs": [],
      "name": "InvalidNFT",
      "type": "error"
    },
    {
      "inputs": [],
      "name": "NotAuthorized",
      "type": "error"
    },
    {
      "inputs": [],
      "name": "ZeroAddressDetected",
      "type": "error"
    },
    {
      "anonymous": false,
      "inputs": [
        {
          "indexed": true,
          "internalType": "string",
          "name": "eventName",
          "type": "string"
        },
        {
          "indexed": true,
          "internalType": "uint256",
          "name": "id",
          "type": "uint256"
        },
        {
          "indexed": true,
          "internalType": "uint256",
          "name": "timeCreated",
          "type": "uint256"
        },
        {
          "indexed": false,
          "internalType": "bool",
          "name": "iscreated",
          "type": "bool"
        }
      ],
      "name": "EventCreated",
      "type": "event"
    },
    {
      "anonymous": false,
      "inputs": [
        {
          "indexed": true,
          "internalType": "uint256",
          "name": "id",
          "type": "uint256"
        },
        {
          "indexed": true,
          "internalType": "uint256",
          "name": "timeRemoved",
          "type": "uint256"
        }
      ],
      "name": "EventRemoved",
      "type": "event"
    },
    {
      "anonymous": false,
      "inputs": [
        {
          "indexed": true,
          "internalType": "string",
          "name": "eventName",
          "type": "string"
        },
        {
          "indexed": true,
          "internalType": "uint256",
          "name": "id",
          "type": "uint256"
        },
        {
          "indexed": true,
          "internalType": "uint256",
          "name": "timeRegistered",
          "type": "uint256"
        },
        {
          "indexed": false,
          "internalType": "address",
          "name": "userName",
          "type": "address"
        }
      ],
      "name": "RegistredSuccessful",
      "type": "event"
    },
    {
      "inputs": [
        {
          "internalType": "string",
          "name": "_eventName",
          "type": "string"
        },
        {
          "internalType": "address",
          "name": "_nftTokenAddress",
          "type": "address"
        },
        {
          "internalType": "string",
          "name": "_eventLocation",
          "type": "string"
        },
        {
          "internalType": "string",
          "name": "_dateHappening",
          "type": "string"
        },
        {
          "internalType": "enum EventManagement.EventType",
          "name": "_eventType",
          "type": "uint8"
        }
      ],
      "name": "createEvent",
      "outputs": [],
      "stateMutability": "nonpayable",
      "type": "function"
    },
    {
      "inputs": [],
      "name": "eventManager",
      "outputs": [
        {
          "internalType": "address",
          "name": "",
          "type": "address"
        }
      ],
      "stateMutability": "view",
      "type": "function"
    },
    {
      "inputs": [],
      "name": "eventTrackingId",
      "outputs": [
        {
          "internalType": "uint256",
          "name": "",
          "type": "uint256"
        }
      ],
      "stateMutability": "view",
      "type": "function"
    },
    {
      "inputs": [
        {
          "internalType": "address",
          "name": "_userNftTokenAddress",
          "type": "address"
        },
        {
          "internalType": "uint256",
          "name": "_eventId",
          "type": "uint256"
        }
      ],
      "name": "registerForEvent",
      "outputs": [],
      "stateMutability": "nonpayable",
      "type": "function"
    },
    {
      "inputs": [
        {
          "internalType": "uint256",
          "name": "eventId",
          "type": "uint256"
        }
      ],
      "name": "removeEvent",
      "outputs": [],
      "stateMutability": "nonpayable",
      "type": "function"
    }
  ],
  "bytecode": "0x608060405234801561001057600080fd5b5033600160006101000a81548173ffffffffffffffffffffffffffffffffffffffff021916908373ffffffffffffffffffffffffffffffffffffffff16021790555061167c806100616000396000f3fe608060405234801561001057600080fd5b50600436106100575760003560e01c80630b81491f1461005c5780631b4a42ca1461007857806356164e1e146100965780638fd611be146100b25780639f534b62146100d0575b600080fd5b61007660048036038101906100719190610c80565b6100ec565b005b6100806104c8565b60405161008d9190610ccf565b60405180910390f35b6100b060048036038101906100ab9190610cea565b6104ce565b005b6100ba6107ef565b6040516100c79190610d26565b60405180910390f35b6100ea60048036038101906100e59190610eac565b610815565b005b6100f46109a0565b6003600082815260200190815260200160002060040160019054906101000a900460ff16610157576040517f08c379a000000000000000000000000000000000000000000000000000000000815260040161014e90610fd8565b60405180910390fd5b6003600082815260200190815260200160002060040160029054906101000a900460ff16156101bb576040517f08c379a00000000000000000000000000000000000000000000000000000000081526004016101b290611044565b60405180910390fd5b6101c3610afa565b600560003373ffffffffffffffffffffffffffffffffffffffff1673ffffffffffffffffffffffffffffffffffffffff168152602001908152602001600020600083815260200190815260200160002060009054906101000a900460ff1615610261576040517f08c379a0000000000000000000000000000000000000000000000000000000008152600401610258906110b0565b60405180910390fd5b6102a1836003600085815260200190815260200160002060040160039054906101000a900473ffffffffffffffffffffffffffffffffffffffff16610a08565b60018373ffffffffffffffffffffffffffffffffffffffff166370a08231336040518263ffffffff1660e01b81526004016102dc9190610d26565b602060405180830381865afa1580156102f9573d6000803e3d6000fd5b505050506040513d601f19601f8201168201806040525081019061031d91906110e5565b1161035d576040517f08c379a00000000000000000000000000000000000000000000000000000000081526004016103549061115e565b60405180910390fd5b33816000019073ffffffffffffffffffffffffffffffffffffffff16908173ffffffffffffffffffffffffffffffffffffffff1681525050428160400181815250506003600083815260200190815260200160002060040160009054906101000a900460ff16816060019060038111156103da576103d961117e565b5b908160038111156103ee576103ed61117e565b5b815250506001600560003373ffffffffffffffffffffffffffffffffffffffff1673ffffffffffffffffffffffffffffffffffffffff168152602001908152602001600020600084815260200190815260200160002060006101000a81548160ff0219169083151502179055508060400151826003600085815260200190815260200160002060000160405161048491906112b0565b60405180910390207f83fe0215b5962d3c06a6e50aa0fadc419452f89309208daab994c6abf731f466336040516104bb9190610d26565b60405180910390a4505050565b60005481565b6104d6610a71565b6104de6109a0565b6000600360008381526020019081526020016000206040518061012001604052908160008201805461050f906111dc565b80601f016020809104026020016040519081016040528092919081815260200182805461053b906111dc565b80156105885780601f1061055d57610100808354040283529160200191610588565b820191906000526020600020905b81548152906001019060200180831161056b57829003601f168201915b505050505081526020016001820180546105a1906111dc565b80601f01602080910402602001604051908101604052809291908181526020018280546105cd906111dc565b801561061a5780601f106105ef5761010080835404028352916020019161061a565b820191906000526020600020905b8154815290600101906020018083116105fd57829003601f168201915b505050505081526020016002820154815260200160038201805461063d906111dc565b80601f0160208091040260200160405190810160405280929190818152602001828054610669906111dc565b80156106b65780601f1061068b576101008083540402835291602001916106b6565b820191906000526020600020905b81548152906001019060200180831161069957829003601f168201915b505050505081526020016004820160009054906101000a900460ff1660038111156106e4576106e361117e565b5b60038111156106f6576106f561117e565b5b81526020016004820160019054906101000a900460ff161515151581526020016004820160029054906101000a900460ff161515151581526020016004820160039054906101000a900473ffffffffffffffffffffffffffffffffffffffff1673ffffffffffffffffffffffffffffffffffffffff1673ffffffffffffffffffffffffffffffffffffffff168152602001600582015481525050905061079a610b60565b905060018160c00190151590811515815250504281610100018181525050806101000151827f7f2fe301e665b9f66c6f8b823b198f26d72e8147e7c9ca4b29b82547672a687c60405160405180910390a35050565b600160009054906101000a900473ffffffffffffffffffffffffffffffffffffffff1681565b61081d610a71565b6108256109a0565b6000600160005461083691906112f6565b905060006003600083815260200190815260200160002090508681600001908161086091906114cc565b50858160040160036101000a81548173ffffffffffffffffffffffffffffffffffffffff021916908373ffffffffffffffffffffffffffffffffffffffff160217905550838160030190816108b591906114cc565b50848160010190816108c791906114cc565b50828160040160006101000a81548160ff021916908360038111156108ef576108ee61117e565b5b021790555042816002018190555060018160040160016101000a81548160ff021916908315150217905550600160008082825461092c91906112f6565b925050819055508060020154828860405161094791906115f9565b60405180910390207fd2018394b872f812885bbf86584dc1c9d9eb07b33cdf8b80ca75d6cea0bcdc508460040160019054906101000a900460ff1660405161098f919061162b565b60405180910390a450505050505050565b600073ffffffffffffffffffffffffffffffffffffffff163373ffffffffffffffffffffffffffffffffffffffff1603610a06576040517f510fbaea00000000000000000000000000000000000000000000000000000000815260040160405180910390fd5b565b8073ffffffffffffffffffffffffffffffffffffffff168273ffffffffffffffffffffffffffffffffffffffff1614610a6d576040517f0f3e2a3e00000000000000000000000000000000000000000000000000000000815260040160405180910390fd5b5050565b600160009054906101000a900473ffffffffffffffffffffffffffffffffffffffff1673ffffffffffffffffffffffffffffffffffffffff163373ffffffffffffffffffffffffffffffffffffffff1614610af8576040517fea8e4eb500000000000000000000000000000000000000000000000000000000815260040160405180910390fd5b565b6040518060800160405280600073ffffffffffffffffffffffffffffffffffffffff168152602001600073ffffffffffffffffffffffffffffffffffffffff1681526020016000815260200160006003811115610b5a57610b5961117e565b5b81525090565b6040518061012001604052806060815260200160608152602001600081526020016060815260200160006003811115610b9c57610b9b61117e565b5b8152602001600015158152602001600015158152602001600073ffffffffffffffffffffffffffffffffffffffff168152602001600081525090565b6000604051905090565b600080fd5b600080fd5b600073ffffffffffffffffffffffffffffffffffffffff82169050919050565b6000610c1782610bec565b9050919050565b610c2781610c0c565b8114610c3257600080fd5b50565b600081359050610c4481610c1e565b92915050565b6000819050919050565b610c5d81610c4a565b8114610c6857600080fd5b50565b600081359050610c7a81610c54565b92915050565b60008060408385031215610c9757610c96610be2565b5b6000610ca585828601610c35565b9250506020610cb685828601610c6b565b9150509250929050565b610cc981610c4a565b82525050565b6000602082019050610ce46000830184610cc0565b92915050565b600060208284031215610d0057610cff610be2565b5b6000610d0e84828501610c6b565b91505092915050565b610d2081610c0c565b82525050565b6000602082019050610d3b6000830184610d17565b92915050565b600080fd5b600080fd5b6000601f19601f8301169050919050565b7f4e487b7100000000000000000000000000000000000000000000000000000000600052604160045260246000fd5b610d9482610d4b565b810181811067ffffffffffffffff82111715610db357610db2610d5c565b5b80604052505050565b6000610dc6610bd8565b9050610dd28282610d8b565b919050565b600067ffffffffffffffff821115610df257610df1610d5c565b5b610dfb82610d4b565b9050602081019050919050565b82818337600083830152505050565b6000610e2a610e2584610dd7565b610dbc565b905082815260208101848484011115610e4657610e45610d46565b5b610e51848285610e08565b509392505050565b600082601f830112610e6e57610e6d610d41565b5b8135610e7e848260208601610e17565b91505092915050565b60048110610e9457600080fd5b50565b600081359050610ea681610e87565b92915050565b600080600080600060a08688031215610ec857610ec7610be2565b5b600086013567ffffffffffffffff811115610ee657610ee5610be7565b5b610ef288828901610e59565b9550506020610f0388828901610c35565b945050604086013567ffffffffffffffff811115610f2457610f23610be7565b5b610f3088828901610e59565b935050606086013567ffffffffffffffff811115610f5157610f50610be7565b5b610f5d88828901610e59565b9250506080610f6e88828901610e97565b9150509295509295909350565b600082825260208201905092915050565b7f4576656e7420646f6573204e6f742045786973742f4976616c69644964000000600082015250565b6000610fc2601d83610f7b565b9150610fcd82610f8c565b602082019050919050565b60006020820190508181036000830152610ff181610fb5565b9050919050565b7f4576656e742068617320456e6465640000000000000000000000000000000000600082015250565b600061102e600f83610f7b565b915061103982610ff8565b602082019050919050565b6000602082019050818103600083015261105d81611021565b9050919050565b7f43616e277420726567697374657220666f72206576656e742074776963650000600082015250565b600061109a601e83610f7b565b91506110a582611064565b602082019050919050565b600060208201905081810360008301526110c98161108d565b9050919050565b6000815190506110df81610c54565b92915050565b6000602082840312156110fb576110fa610be2565b5b6000611109848285016110d0565b91505092915050565b7f496e73756666696369656e742042616c616e6365000000000000000000000000600082015250565b6000611148601483610f7b565b915061115382611112565b602082019050919050565b600060208201905081810360008301526111778161113b565b9050919050565b7f4e487b7100000000000000000000000000000000000000000000000000000000600052602160045260246000fd5b7f4e487b7100000000000000000000000000000000000000000000000000000000600052602260045260246000fd5b600060028204905060018216806111f457607f821691505b602082108103611207576112066111ad565b5b50919050565b600081905092915050565b60008190508160005260206000209050919050565b6000815461123a816111dc565b611244818661120d565b9450600182166000811461125f5760018114611274576112a7565b60ff19831686528115158202860193506112a7565b61127d85611218565b60005b8381101561129f57815481890152600182019150602081019050611280565b838801955050505b50505092915050565b60006112bc828461122d565b915081905092915050565b7f4e487b7100000000000000000000000000000000000000000000000000000000600052601160045260246000fd5b600061130182610c4a565b915061130c83610c4a565b9250828201905080821115611324576113236112c7565b5b92915050565b600081519050919050565b60006020601f8301049050919050565b600082821b905092915050565b6000600883026113827fffffffffffffffffffffffffffffffffffffffffffffffffffffffffffffffff82611345565b61138c8683611345565b95508019841693508086168417925050509392505050565b6000819050919050565b60006113c96113c46113bf84610c4a565b6113a4565b610c4a565b9050919050565b6000819050919050565b6113e3836113ae565b6113f76113ef826113d0565b848454611352565b825550505050565b600090565b61140c6113ff565b6114178184846113da565b505050565b5b8181101561143b57611430600082611404565b60018101905061141d565b5050565b601f8211156114805761145181611218565b61145a84611335565b81016020851015611469578190505b61147d61147585611335565b83018261141c565b50505b505050565b600082821c905092915050565b60006114a360001984600802611485565b1980831691505092915050565b60006114bc8383611492565b9150826002028217905092915050565b6114d58261132a565b67ffffffffffffffff8111156114ee576114ed610d5c565b5b6114f882546111dc565b61150382828561143f565b600060209050601f8311600181146115365760008415611524578287015190505b61152e85826114b0565b865550611596565b601f19841661154486611218565b60005b8281101561156c57848901518255600182019150602085019450602081019050611547565b868310156115895784890151611585601f891682611492565b8355505b6001600288020188555050505b505050505050565b60005b838110156115bc5780820151818401526020810190506115a1565b60008484015250505050565b60006115d38261132a565b6115dd818561120d565b93506115ed81856020860161159e565b80840191505092915050565b600061160582846115c8565b915081905092915050565b60008115159050919050565b61162581611610565b82525050565b6000602082019050611640600083018461161c565b9291505056fea26469706673582212204048a664c6a3f5fba4599b46f41612b8c544ae45586104dd72c68118dd6f1be364736f6c63430008180033",
  "linkReferences": {},
  "deployedLinkReferences": {}
}