{
  "_format": "hh-sol-artifact-1",
  "contractName": "EventNFT",
  "sourceName": "contracts/EventNft.sol",
  "abi": [
    {
      "inputs": [],
      "stateMutability": "nonpayable",
      "type": "constructor"
    },
    {
      "inputs": [
        {
          "internalType": "address",
          "name": "sender",
          "type": "address"
        },
        {
          "internalType": "uint256",
          "name": "tokenId",
          "type": "uint256"
        },
        {
          "internalType": "address",
          "name": "owner",
          "type": "address"
        }
      ],
      "name": "ERC721IncorrectOwner",
      "type": "error"
    },
    {
      "inputs": [
        {
          "internalType": "address",
          "name": "operator",
          "type": "address"
        },
        {
          "internalType": "uint256",
          "name": "tokenId",
          "type": "uint256"
        }
      ],
      "name": "ERC721InsufficientApproval",
      "type": "error"
    },
    {
      "inputs": [
        {
          "internalType": "address",
          "name": "approver",
          "type": "address"
        }
      ],
      "name": "ERC721InvalidApprover",
      "type": "error"
    },
    {
      "inputs": [
        {
          "internalType": "address",
          "name": "operator",
          "type": "address"
        }
      ],
      "name": "ERC721InvalidOperator",
      "type": "error"
    },
    {
      "inputs": [
        {
          "internalType": "address",
          "name": "owner",
          "type": "address"
        }
      ],
      "name": "ERC721InvalidOwner",
      "type": "error"
    },
    {
      "inputs": [
        {
          "internalType": "address",
          "name": "receiver",
          "type": "address"
        }
      ],
      "name": "ERC721InvalidReceiver",
      "type": "error"
    },
    {
      "inputs": [
        {
          "internalType": "address",
          "name": "sender",
          "type": "address"
        }
      ],
      "name": "ERC721InvalidSender",
      "type": "error"
    },
    {
      "inputs": [
        {
          "internalType": "uint256",
          "name": "tokenId",
          "type": "uint256"
        }
      ],
      "name": "ERC721NonexistentToken",
      "type": "error"
    },
    {
      "anonymous": false,
      "inputs": [
        {
          "indexed": true,
          "internalType": "address",
          "name": "owner",
          "type": "address"
        },
        {
          "indexed": true,
          "internalType": "address",
          "name": "approved",
          "type": "address"
        },
        {
          "indexed": true,
          "internalType": "uint256",
          "name": "tokenId",
          "type": "uint256"
        }
      ],
      "name": "Approval",
      "type": "event"
    },
    {
      "anonymous": false,
      "inputs": [
        {
          "indexed": true,
          "internalType": "address",
          "name": "owner",
          "type": "address"
        },
        {
          "indexed": true,
          "internalType": "address",
          "name": "operator",
          "type": "address"
        },
        {
          "indexed": false,
          "internalType": "bool",
          "name": "approved",
          "type": "bool"
        }
      ],
      "name": "ApprovalForAll",
      "type": "event"
    },
    {
      "anonymous": false,
      "inputs": [
        {
          "indexed": false,
          "internalType": "uint256",
          "name": "_fromTokenId",
          "type": "uint256"
        },
        {
          "indexed": false,
          "internalType": "uint256",
          "name": "_toTokenId",
          "type": "uint256"
        }
      ],
      "name": "BatchMetadataUpdate",
      "type": "event"
    },
    {
      "anonymous": false,
      "inputs": [
        {
          "indexed": false,
          "internalType": "uint256",
          "name": "_tokenId",
          "type": "uint256"
        }
      ],
      "name": "MetadataUpdate",
      "type": "event"
    },
    {
      "anonymous": false,
      "inputs": [
        {
          "indexed": true,
          "internalType": "address",
          "name": "from",
          "type": "address"
        },
        {
          "indexed": true,
          "internalType": "address",
          "name": "to",
          "type": "address"
        },
        {
          "indexed": true,
          "internalType": "uint256",
          "name": "tokenId",
          "type": "uint256"
        }
      ],
      "name": "Transfer",
      "type": "event"
    },
    {
      "inputs": [
        {
          "internalType": "address",
          "name": "to",
          "type": "address"
        },
        {
          "internalType": "uint256",
          "name": "tokenId",
          "type": "uint256"
        }
      ],
      "name": "approve",
      "outputs": [],
      "stateMutability": "nonpayable",
      "type": "function"
    },
    {
      "inputs": [
        {
          "internalType": "address",
          "name": "owner",
          "type": "address"
        }
      ],
      "name": "balanceOf",
      "outputs": [
        {
          "internalType": "uint256",
          "name": "",
          "type": "uint256"
        }
      ],
      "stateMutability": "view",
      "type": "function"
    },
    {
      "inputs": [
        {
          "internalType": "uint256",
          "name": "tokenId",
          "type": "uint256"
        }
      ],
      "name": "getApproved",
      "outputs": [
        {
          "internalType": "address",
          "name": "",
          "type": "address"
        }
      ],
      "stateMutability": "view",
      "type": "function"
    },
    {
      "inputs": [
        {
          "internalType": "address",
          "name": "owner",
          "type": "address"
        },
        {
          "internalType": "address",
          "name": "operator",
          "type": "address"
        }
      ],
      "name": "isApprovedForAll",
      "outputs": [
        {
          "internalType": "bool",
          "name": "",
          "type": "bool"
        }
      ],
      "stateMutability": "view",
      "type": "function"
    },
    {
      "inputs": [
        {
          "internalType": "string",
          "name": "tokenURI",
          "type": "string"
        }
      ],
      "name": "mintNft",
      "outputs": [
        {
          "internalType": "uint256",
          "name": "",
          "type": "uint256"
        }
      ],
      "stateMutability": "nonpayable",
      "type": "function"
    },
    {
      "inputs": [],
      "name": "name",
      "outputs": [
        {
          "internalType": "string",
          "name": "",
          "type": "string"
        }
      ],
      "stateMutability": "view",
      "type": "function"
    },
    {
      "inputs": [
        {
          "internalType": "uint256",
          "name": "tokenId",
          "type": "uint256"
        }
      ],
      "name": "ownerOf",
      "outputs": [
        {
          "internalType": "address",
          "name": "",
          "type": "address"
        }
      ],
      "stateMutability": "view",
      "type": "function"
    },
    {
      "inputs": [
        {
          "internalType": "address",
          "name": "from",
          "type": "address"
        },
        {
          "internalType": "address",
          "name": "to",
          "type": "address"
        },
        {
          "internalType": "uint256",
          "name": "tokenId",
          "type": "uint256"
        }
      ],
      "name": "safeTransferFrom",
      "outputs": [],
      "stateMutability": "nonpayable",
      "type": "function"
    },
    {
      "inputs": [
        {
          "internalType": "address",
          "name": "from",
          "type": "address"
        },
        {
          "internalType": "address",
          "name": "to",
          "type": "address"
        },
        {
          "internalType": "uint256",
          "name": "tokenId",
          "type": "uint256"
        },
        {
          "internalType": "bytes",
          "name": "data",
          "type": "bytes"
        }
      ],
      "name": "safeTransferFrom",
      "outputs": [],
      "stateMutability": "nonpayable",
      "type": "function"
    },
    {
      "inputs": [
        {
          "internalType": "address",
          "name": "operator",
          "type": "address"
        },
        {
          "internalType": "bool",
          "name": "approved",
          "type": "bool"
        }
      ],
      "name": "setApprovalForAll",
      "outputs": [],
      "stateMutability": "nonpayable",
      "type": "function"
    },
    {
      "inputs": [
        {
          "internalType": "bytes4",
          "name": "interfaceId",
          "type": "bytes4"
        }
      ],
      "name": "supportsInterface",
      "outputs": [
        {
          "internalType": "bool",
          "name": "",
          "type": "bool"
        }
      ],
      "stateMutability": "view",
      "type": "function"
    },
    {
      "inputs": [],
      "name": "symbol",
      "outputs": [
        {
          "internalType": "string",
          "name": "",
          "type": "string"
        }
      ],
      "stateMutability": "view",
      "type": "function"
    },
    {
      "inputs": [
        {
          "internalType": "uint256",
          "name": "tokenId",
          "type": "uint256"
        }
      ],
      "name": "tokenURI",
      "outputs": [
        {
          "internalType": "string",
          "name": "",
          "type": "string"
        }
      ],
      "stateMutability": "view",
      "type": "function"
    },
    {
      "inputs": [
        {
          "internalType": "address",
          "name": "from",
          "type": "address"
        },
        {
          "internalType": "address",
          "name": "to",
          "type": "address"
        },
        {
          "internalType": "uint256",
          "name": "tokenId",
          "type": "uint256"
        }
      ],
      "name": "transferFrom",
      "outputs": [],
      "stateMutability": "nonpayable",
      "type": "function"
    }
  ],
  "bytecode": "0x60806040523480156200001157600080fd5b506040518060400160405280600881526020017f4576656e744e46540000000000000000000000000000000000000000000000008152506040518060400160405280600381526020017f455654000000000000000000000000000000000000000000000000000000000081525081600090816200008f919062000324565b508060019081620000a1919062000324565b5050506200040b565b600081519050919050565b7f4e487b7100000000000000000000000000000000000000000000000000000000600052604160045260246000fd5b7f4e487b7100000000000000000000000000000000000000000000000000000000600052602260045260246000fd5b600060028204905060018216806200012c57607f821691505b602082108103620001425762000141620000e4565b5b50919050565b60008190508160005260206000209050919050565b60006020601f8301049050919050565b600082821b905092915050565b600060088302620001ac7fffffffffffffffffffffffffffffffffffffffffffffffffffffffffffffffff826200016d565b620001b886836200016d565b95508019841693508086168417925050509392505050565b6000819050919050565b6000819050919050565b600062000205620001ff620001f984620001d0565b620001da565b620001d0565b9050919050565b6000819050919050565b6200022183620001e4565b6200023962000230826200020c565b8484546200017a565b825550505050565b600090565b6200025062000241565b6200025d81848462000216565b505050565b5b8181101562000285576200027960008262000246565b60018101905062000263565b5050565b601f821115620002d4576200029e8162000148565b620002a9846200015d565b81016020851015620002b9578190505b620002d1620002c8856200015d565b83018262000262565b50505b505050565b600082821c905092915050565b6000620002f960001984600802620002d9565b1980831691505092915050565b6000620003148383620002e6565b9150826002028217905092915050565b6200032f82620000aa565b67ffffffffffffffff8111156200034b576200034a620000b5565b5b62000357825462000113565b6200036482828562000289565b600060209050601f8311600181146200039c576000841562000387578287015190505b62000393858262000306565b86555062000403565b601f198416620003ac8662000148565b60005b82811015620003d657848901518255600182019150602085019450602081019050620003af565b86831015620003f65784890151620003f2601f891682620002e6565b8355505b6001600288020188555050505b505050505050565b6123e7806200041b6000396000f3fe608060405234801561001057600080fd5b50600436106100ea5760003560e01c806370a082311161008c578063b88d4fde11610066578063b88d4fde1461025b578063c87b56dd14610277578063da86f4a9146102a7578063e985e9c5146102d7576100ea565b806370a08231146101f157806395d89b4114610221578063a22cb4651461023f576100ea565b8063095ea7b3116100c8578063095ea7b31461016d57806323b872dd1461018957806342842e0e146101a55780636352211e146101c1576100ea565b806301ffc9a7146100ef57806306fdde031461011f578063081812fc1461013d575b600080fd5b61010960048036038101906101049190611852565b610307565b604051610116919061189a565b60405180910390f35b610127610368565b6040516101349190611945565b60405180910390f35b6101576004803603810190610152919061199d565b6103fa565b6040516101649190611a0b565b60405180910390f35b61018760048036038101906101829190611a52565b610416565b005b6101a3600480360381019061019e9190611a92565b61042c565b005b6101bf60048036038101906101ba9190611a92565b61052e565b005b6101db60048036038101906101d6919061199d565b61054e565b6040516101e89190611a0b565b60405180910390f35b61020b60048036038101906102069190611ae5565b610560565b6040516102189190611b21565b60405180910390f35b61022961061a565b6040516102369190611945565b60405180910390f35b61025960048036038101906102549190611b68565b6106ac565b005b61027560048036038101906102709190611cdd565b6106c2565b005b610291600480360381019061028c919061199d565b6106df565b60405161029e9190611945565b60405180910390f35b6102c160048036038101906102bc9190611e01565b6107f2565b6040516102ce9190611b21565b60405180910390f35b6102f160048036038101906102ec9190611e4a565b610830565b6040516102fe919061189a565b60405180910390f35b6000634906490660e01b7bffffffffffffffffffffffffffffffffffffffffffffffffffffffff1916827bffffffffffffffffffffffffffffffffffffffffffffffffffffffff191614806103615750610360826108c4565b5b9050919050565b60606000805461037790611eb9565b80601f01602080910402602001604051908101604052809291908181526020018280546103a390611eb9565b80156103f05780601f106103c5576101008083540402835291602001916103f0565b820191906000526020600020905b8154815290600101906020018083116103d357829003601f168201915b5050505050905090565b6000610405826109a6565b5061040f82610a2e565b9050919050565b6104288282610423610a6b565b610a73565b5050565b600073ffffffffffffffffffffffffffffffffffffffff168273ffffffffffffffffffffffffffffffffffffffff160361049e5760006040517f64a0ae920000000000000000000000000000000000000000000000000000000081526004016104959190611a0b565b60405180910390fd5b60006104b283836104ad610a6b565b610a85565b90508373ffffffffffffffffffffffffffffffffffffffff168173ffffffffffffffffffffffffffffffffffffffff1614610528578382826040517f64283d7b00000000000000000000000000000000000000000000000000000000815260040161051f93929190611eea565b60405180910390fd5b50505050565b610549838383604051806020016040528060008152506106c2565b505050565b6000610559826109a6565b9050919050565b60008073ffffffffffffffffffffffffffffffffffffffff168273ffffffffffffffffffffffffffffffffffffffff16036105d35760006040517f89c62b640000000000000000000000000000000000000000000000000000000081526004016105ca9190611a0b565b60405180910390fd5b600360008373ffffffffffffffffffffffffffffffffffffffff1673ffffffffffffffffffffffffffffffffffffffff168152602001908152602001600020549050919050565b60606001805461062990611eb9565b80601f016020809104026020016040519081016040528092919081815260200182805461065590611eb9565b80156106a25780601f10610677576101008083540402835291602001916106a2565b820191906000526020600020905b81548152906001019060200180831161068557829003601f168201915b5050505050905090565b6106be6106b7610a6b565b8383610c9f565b5050565b6106cd84848461042c565b6106d984848484610e0e565b50505050565b60606106ea826109a6565b50600060066000848152602001908152602001600020805461070b90611eb9565b80601f016020809104026020016040519081016040528092919081815260200182805461073790611eb9565b80156107845780601f1061075957610100808354040283529160200191610784565b820191906000526020600020905b81548152906001019060200180831161076757829003601f168201915b505050505090506000610795610fc5565b905060008151036107aa5781925050506107ed565b6000825111156107df5780826040516020016107c7929190611f5d565b604051602081830303815290604052925050506107ed565b6107e884610fdc565b925050505b919050565b60006007600081548092919061080790611fb0565b91905055506000600754905061081d3382611045565b6108278184611063565b80915050919050565b6000600560008473ffffffffffffffffffffffffffffffffffffffff1673ffffffffffffffffffffffffffffffffffffffff16815260200190815260200160002060008373ffffffffffffffffffffffffffffffffffffffff1673ffffffffffffffffffffffffffffffffffffffff16815260200190815260200160002060009054906101000a900460ff16905092915050565b60007f80ac58cd000000000000000000000000000000000000000000000000000000007bffffffffffffffffffffffffffffffffffffffffffffffffffffffff1916827bffffffffffffffffffffffffffffffffffffffffffffffffffffffff1916148061098f57507f5b5e139f000000000000000000000000000000000000000000000000000000007bffffffffffffffffffffffffffffffffffffffffffffffffffffffff1916827bffffffffffffffffffffffffffffffffffffffffffffffffffffffff1916145b8061099f575061099e826110bf565b5b9050919050565b6000806109b283611129565b9050600073ffffffffffffffffffffffffffffffffffffffff168173ffffffffffffffffffffffffffffffffffffffff1603610a2557826040517f7e273289000000000000000000000000000000000000000000000000000000008152600401610a1c9190611b21565b60405180910390fd5b80915050919050565b60006004600083815260200190815260200160002060009054906101000a900473ffffffffffffffffffffffffffffffffffffffff169050919050565b600033905090565b610a808383836001611166565b505050565b600080610a9184611129565b9050600073ffffffffffffffffffffffffffffffffffffffff168373ffffffffffffffffffffffffffffffffffffffff1614610ad357610ad281848661132b565b5b600073ffffffffffffffffffffffffffffffffffffffff168173ffffffffffffffffffffffffffffffffffffffff1614610b6457610b15600085600080611166565b6001600360008373ffffffffffffffffffffffffffffffffffffffff1673ffffffffffffffffffffffffffffffffffffffff168152602001908152602001600020600082825403925050819055505b600073ffffffffffffffffffffffffffffffffffffffff168573ffffffffffffffffffffffffffffffffffffffff1614610be7576001600360008773ffffffffffffffffffffffffffffffffffffffff1673ffffffffffffffffffffffffffffffffffffffff168152602001908152602001600020600082825401925050819055505b846002600086815260200190815260200160002060006101000a81548173ffffffffffffffffffffffffffffffffffffffff021916908373ffffffffffffffffffffffffffffffffffffffff160217905550838573ffffffffffffffffffffffffffffffffffffffff168273ffffffffffffffffffffffffffffffffffffffff167fddf252ad1be2c89b69c2b068fc378daa952ba7f163c4a11628f55a4df523b3ef60405160405180910390a4809150509392505050565b600073ffffffffffffffffffffffffffffffffffffffff168273ffffffffffffffffffffffffffffffffffffffff1603610d1057816040517f5b08ba18000000000000000000000000000000000000000000000000000000008152600401610d079190611a0b565b60405180910390fd5b80600560008573ffffffffffffffffffffffffffffffffffffffff1673ffffffffffffffffffffffffffffffffffffffff16815260200190815260200160002060008473ffffffffffffffffffffffffffffffffffffffff1673ffffffffffffffffffffffffffffffffffffffff16815260200190815260200160002060006101000a81548160ff0219169083151502179055508173ffffffffffffffffffffffffffffffffffffffff168373ffffffffffffffffffffffffffffffffffffffff167f17307eab39ab6107e8899845ad3d59bd9653f200f220920489ca2b5937696c3183604051610e01919061189a565b60405180910390a3505050565b60008373ffffffffffffffffffffffffffffffffffffffff163b1115610fbf578273ffffffffffffffffffffffffffffffffffffffff1663150b7a02610e52610a6b565b8685856040518563ffffffff1660e01b8152600401610e74949392919061204d565b6020604051808303816000875af1925050508015610eb057506040513d601f19601f82011682018060405250810190610ead91906120ae565b60015b610f34573d8060008114610ee0576040519150601f19603f3d011682016040523d82523d6000602084013e610ee5565b606091505b506000815103610f2c57836040517f64a0ae92000000000000000000000000000000000000000000000000000000008152600401610f239190611a0b565b60405180910390fd5b805181602001fd5b63150b7a0260e01b7bffffffffffffffffffffffffffffffffffffffffffffffffffffffff1916817bffffffffffffffffffffffffffffffffffffffffffffffffffffffff191614610fbd57836040517f64a0ae92000000000000000000000000000000000000000000000000000000008152600401610fb49190611a0b565b60405180910390fd5b505b50505050565b606060405180602001604052806000815250905090565b6060610fe7826109a6565b506000610ff2610fc5565b90506000815111611012576040518060200160405280600081525061103d565b8061101c846113ef565b60405160200161102d929190611f5d565b6040516020818303038152906040525b915050919050565b61105f8282604051806020016040528060008152506114bd565b5050565b806006600084815260200190815260200160002090816110839190612287565b507ff8e1a15aba9398e019f0b49df1a4fde98ee17ae345cb5f6b5e2c27f5033e8ce7826040516110b39190611b21565b60405180910390a15050565b60007f01ffc9a7000000000000000000000000000000000000000000000000000000007bffffffffffffffffffffffffffffffffffffffffffffffffffffffff1916827bffffffffffffffffffffffffffffffffffffffffffffffffffffffff1916149050919050565b60006002600083815260200190815260200160002060009054906101000a900473ffffffffffffffffffffffffffffffffffffffff169050919050565b808061119f5750600073ffffffffffffffffffffffffffffffffffffffff168273ffffffffffffffffffffffffffffffffffffffff1614155b156112d35760006111af846109a6565b9050600073ffffffffffffffffffffffffffffffffffffffff168373ffffffffffffffffffffffffffffffffffffffff161415801561121a57508273ffffffffffffffffffffffffffffffffffffffff168173ffffffffffffffffffffffffffffffffffffffff1614155b801561122d575061122b8184610830565b155b1561126f57826040517fa9fbf51f0000000000000000000000000000000000000000000000000000000081526004016112669190611a0b565b60405180910390fd5b81156112d157838573ffffffffffffffffffffffffffffffffffffffff168273ffffffffffffffffffffffffffffffffffffffff167f8c5be1e5ebec7d5bd14f71427d1e84f3dd0314c0f7b2291e5b200ac8c7c3b92560405160405180910390a45b505b836004600085815260200190815260200160002060006101000a81548173ffffffffffffffffffffffffffffffffffffffff021916908373ffffffffffffffffffffffffffffffffffffffff16021790555050505050565b6113368383836114d9565b6113ea57600073ffffffffffffffffffffffffffffffffffffffff168373ffffffffffffffffffffffffffffffffffffffff16036113ab57806040517f7e2732890000000000000000000000000000000000000000000000000000000081526004016113a29190611b21565b60405180910390fd5b81816040517f177e802f0000000000000000000000000000000000000000000000000000000081526004016113e1929190612359565b60405180910390fd5b505050565b6060600060016113fe8461159a565b01905060008167ffffffffffffffff81111561141d5761141c611bb2565b5b6040519080825280601f01601f19166020018201604052801561144f5781602001600182028036833780820191505090505b509050600082602001820190505b6001156114b2578080600190039150507f3031323334353637383961626364656600000000000000000000000000000000600a86061a8153600a85816114a6576114a5612382565b5b0494506000850361145d575b819350505050919050565b6114c783836116ed565b6114d46000848484610e0e565b505050565b60008073ffffffffffffffffffffffffffffffffffffffff168373ffffffffffffffffffffffffffffffffffffffff161415801561159157508273ffffffffffffffffffffffffffffffffffffffff168473ffffffffffffffffffffffffffffffffffffffff16148061155257506115518484610830565b5b8061159057508273ffffffffffffffffffffffffffffffffffffffff1661157883610a2e565b73ffffffffffffffffffffffffffffffffffffffff16145b5b90509392505050565b600080600090507a184f03e93ff9f4daa797ed6e38ed64bf6a1f01000000000000000083106115f8577a184f03e93ff9f4daa797ed6e38ed64bf6a1f01000000000000000083816115ee576115ed612382565b5b0492506040810190505b6d04ee2d6d415b85acef81000000008310611635576d04ee2d6d415b85acef8100000000838161162b5761162a612382565b5b0492506020810190505b662386f26fc10000831061166457662386f26fc10000838161165a57611659612382565b5b0492506010810190505b6305f5e100831061168d576305f5e100838161168357611682612382565b5b0492506008810190505b61271083106116b25761271083816116a8576116a7612382565b5b0492506004810190505b606483106116d557606483816116cb576116ca612382565b5b0492506002810190505b600a83106116e4576001810190505b80915050919050565b600073ffffffffffffffffffffffffffffffffffffffff168273ffffffffffffffffffffffffffffffffffffffff160361175f5760006040517f64a0ae920000000000000000000000000000000000000000000000000000000081526004016117569190611a0b565b60405180910390fd5b600061176d83836000610a85565b9050600073ffffffffffffffffffffffffffffffffffffffff168173ffffffffffffffffffffffffffffffffffffffff16146117e15760006040517f73c6ac6e0000000000000000000000000000000000000000000000000000000081526004016117d89190611a0b565b60405180910390fd5b505050565b6000604051905090565b600080fd5b600080fd5b60007fffffffff0000000000000000000000000000000000000000000000000000000082169050919050565b61182f816117fa565b811461183a57600080fd5b50565b60008135905061184c81611826565b92915050565b600060208284031215611868576118676117f0565b5b60006118768482850161183d565b91505092915050565b60008115159050919050565b6118948161187f565b82525050565b60006020820190506118af600083018461188b565b92915050565b600081519050919050565b600082825260208201905092915050565b60005b838110156118ef5780820151818401526020810190506118d4565b60008484015250505050565b6000601f19601f8301169050919050565b6000611917826118b5565b61192181856118c0565b93506119318185602086016118d1565b61193a816118fb565b840191505092915050565b6000602082019050818103600083015261195f818461190c565b905092915050565b6000819050919050565b61197a81611967565b811461198557600080fd5b50565b60008135905061199781611971565b92915050565b6000602082840312156119b3576119b26117f0565b5b60006119c184828501611988565b91505092915050565b600073ffffffffffffffffffffffffffffffffffffffff82169050919050565b60006119f5826119ca565b9050919050565b611a05816119ea565b82525050565b6000602082019050611a2060008301846119fc565b92915050565b611a2f816119ea565b8114611a3a57600080fd5b50565b600081359050611a4c81611a26565b92915050565b60008060408385031215611a6957611a686117f0565b5b6000611a7785828601611a3d565b9250506020611a8885828601611988565b9150509250929050565b600080600060608486031215611aab57611aaa6117f0565b5b6000611ab986828701611a3d565b9350506020611aca86828701611a3d565b9250506040611adb86828701611988565b9150509250925092565b600060208284031215611afb57611afa6117f0565b5b6000611b0984828501611a3d565b91505092915050565b611b1b81611967565b82525050565b6000602082019050611b366000830184611b12565b92915050565b611b458161187f565b8114611b5057600080fd5b50565b600081359050611b6281611b3c565b92915050565b60008060408385031215611b7f57611b7e6117f0565b5b6000611b8d85828601611a3d565b9250506020611b9e85828601611b53565b9150509250929050565b600080fd5b600080fd5b7f4e487b7100000000000000000000000000000000000000000000000000000000600052604160045260246000fd5b611bea826118fb565b810181811067ffffffffffffffff82111715611c0957611c08611bb2565b5b80604052505050565b6000611c1c6117e6565b9050611c288282611be1565b919050565b600067ffffffffffffffff821115611c4857611c47611bb2565b5b611c51826118fb565b9050602081019050919050565b82818337600083830152505050565b6000611c80611c7b84611c2d565b611c12565b905082815260208101848484011115611c9c57611c9b611bad565b5b611ca7848285611c5e565b509392505050565b600082601f830112611cc457611cc3611ba8565b5b8135611cd4848260208601611c6d565b91505092915050565b60008060008060808587031215611cf757611cf66117f0565b5b6000611d0587828801611a3d565b9450506020611d1687828801611a3d565b9350506040611d2787828801611988565b925050606085013567ffffffffffffffff811115611d4857611d476117f5565b5b611d5487828801611caf565b91505092959194509250565b600067ffffffffffffffff821115611d7b57611d7a611bb2565b5b611d84826118fb565b9050602081019050919050565b6000611da4611d9f84611d60565b611c12565b905082815260208101848484011115611dc057611dbf611bad565b5b611dcb848285611c5e565b509392505050565b600082601f830112611de857611de7611ba8565b5b8135611df8848260208601611d91565b91505092915050565b600060208284031215611e1757611e166117f0565b5b600082013567ffffffffffffffff811115611e3557611e346117f5565b5b611e4184828501611dd3565b91505092915050565b60008060408385031215611e6157611e606117f0565b5b6000611e6f85828601611a3d565b9250506020611e8085828601611a3d565b9150509250929050565b7f4e487b7100000000000000000000000000000000000000000000000000000000600052602260045260246000fd5b60006002820490506001821680611ed157607f821691505b602082108103611ee457611ee3611e8a565b5b50919050565b6000606082019050611eff60008301866119fc565b611f0c6020830185611b12565b611f1960408301846119fc565b949350505050565b600081905092915050565b6000611f37826118b5565b611f418185611f21565b9350611f518185602086016118d1565b80840191505092915050565b6000611f698285611f2c565b9150611f758284611f2c565b91508190509392505050565b7f4e487b7100000000000000000000000000000000000000000000000000000000600052601160045260246000fd5b6000611fbb82611967565b91507fffffffffffffffffffffffffffffffffffffffffffffffffffffffffffffffff8203611fed57611fec611f81565b5b600182019050919050565b600081519050919050565b600082825260208201905092915050565b600061201f82611ff8565b6120298185612003565b93506120398185602086016118d1565b612042816118fb565b840191505092915050565b600060808201905061206260008301876119fc565b61206f60208301866119fc565b61207c6040830185611b12565b818103606083015261208e8184612014565b905095945050505050565b6000815190506120a881611826565b92915050565b6000602082840312156120c4576120c36117f0565b5b60006120d284828501612099565b91505092915050565b60008190508160005260206000209050919050565b60006020601f8301049050919050565b600082821b905092915050565b60006008830261213d7fffffffffffffffffffffffffffffffffffffffffffffffffffffffffffffffff82612100565b6121478683612100565b95508019841693508086168417925050509392505050565b6000819050919050565b600061218461217f61217a84611967565b61215f565b611967565b9050919050565b6000819050919050565b61219e83612169565b6121b26121aa8261218b565b84845461210d565b825550505050565b600090565b6121c76121ba565b6121d2818484612195565b505050565b5b818110156121f6576121eb6000826121bf565b6001810190506121d8565b5050565b601f82111561223b5761220c816120db565b612215846120f0565b81016020851015612224578190505b612238612230856120f0565b8301826121d7565b50505b505050565b600082821c905092915050565b600061225e60001984600802612240565b1980831691505092915050565b6000612277838361224d565b9150826002028217905092915050565b612290826118b5565b67ffffffffffffffff8111156122a9576122a8611bb2565b5b6122b38254611eb9565b6122be8282856121fa565b600060209050601f8311600181146122f157600084156122df578287015190505b6122e9858261226b565b865550612351565b601f1984166122ff866120db565b60005b8281101561232757848901518255600182019150602085019450602081019050612302565b868310156123445784890151612340601f89168261224d565b8355505b6001600288020188555050505b505050505050565b600060408201905061236e60008301856119fc565b61237b6020830184611b12565b9392505050565b7f4e487b7100000000000000000000000000000000000000000000000000000000600052601260045260246000fdfea2646970667358221220b5d4a80687f4a36a05adb97a367e301259bafc155dff0c59f7b331e7282aab7e64736f6c63430008180033",
  "linkReferences": {},
  "deployedLinkReferences": {}
}